:0300000002048275
:0C048200787FE4F6D8FD7581230204C9E0
:10050E0057AB00020800000000000000000C57ABC3
:10051E00001100626358E0E3E22CE6E765E4505117
:10052E004F524C4D4E595A5BE11D1B0619051110C9
:10053E00363738E5494A4B5C5D5E57390416070974
:10054E000A0B0D0E0F333428005F60612B141A084E
:10055E0015171C180C12132F3031005354555635E5
:10056E001E1F20212223242526272D2E2A293A3B01
:0F057E003C3D3E3F404142434445464748000014
:10072400021600000E0857AB00020800000000008B
:040734000000000CB5
:1006E100438E805389F0438902758A91758C91C23A
:0806F1008DD2AFD2A9D28C22F8
:1006A20053877F759850438E40538EFE53890F4374
:1006B2008920758BF4758DF4C2ABD28ED2ACC299FF
:0306C200C29822B9
:05000300D2A8D2882202
:1006F900E4F594F593F592F591F596F595F5B2F53E
:06070900B1F5B4F5B322C6
:0E074C001206E11206A21200031206F980FE48
:0307680012076B0A
:08076B007F167E80DEFEDFFC3C
:010773002263
:05070F0012075A7F01F2
:10071400EF24FF92C69280928192849285928622DF
:10065500EF24FF92B392B492B592B692B792C1923B
:10066500C292C392C492A092A192A292A392A49282
:08067500A592A692A792C522EE
:0E075A00E4F51DF51CF51BF51AF519F518222E
:10067D0020860375180120850375190220840375E2
:10068D001A03208103751B04208003751C0520C6E9
:05069D0003751D06229B
:10000E00E4FF1206550F12071430861130850E309C
:10001E00840B30810830800530C60200221207683A
:10002E0030861230850F30840C30810930800630D6
:10003E00C6030204817F01120655120714120768C7
:10004E0012076B12076B12076B7F06781EE4F60819
:10005E00DFFCC2B30012067DD2B3E4FF74182FF892
:10006E00E6601FE4FD741E2DF8E6701274182FF86A
:10007E00E675F012A4FE741E2DF8A60680040DBDC2
:10008E0006E30FBF06D612070FC2A60012067DD2D8
:10009E00A61F74182FF8E66024EDC39406501E7444
:1000AE001E2DF8E6701474182FF8E675F012A424BD
:1000BE00F1FE741E2DF8A60680030D80DC0FBF0620
:1000CE00D112070FC2A50012067DD2A51F74182FDC
:1000DE00F8E66024EDC39406501E741E2DF8E670EB
:1000EE001474182FF8E675F012A424F2FE741E2D67
:1000FE00F8A60680030D80DC0FBF06D112070FC2D3
:10010E00A40012067DD2A41F74182FF8E66024ED09
:10011E00C39406501E741E2DF8E6701474182FF832
:10012E00E675F012A424F3FE741E2DF8A6068003C5
:10013E000D80DC0FBF06D112070FC2A30012067D81
:10014E00D2A31F74182FF8E66024EDC39406501E38
:10015E00741E2DF8E6701474182FF8E675F012A4BC
:10016E0024F4FE741E2DF8A60680030D80DC0FBF4E
:10017E0006D112070FC2A20012067DD2A21F74185A
:10018E002FF8E66024EDC39406501E741E2DF8E67B
:10019E00701474182FF8E675F012A424F5FE741E70
:1001AE002DF8A60680030D80DC0FBF06D112070FB7
:1001BE00C2A10012067DD2A11F74182FF8E660248A
:1001CE00EDC39406501E741E2DF8E6701474182F8D
:1001DE00F8E675F012A424F6FE741E2DF8A606801D
:1001EE00030D80DC0FBF06D112070FC2A00012064E
:1001FE007DD2A01F74182FF8E66024EDC39406502C
:10020E001E741E2DF8E6701474182FF8E675F01291
:10021E00A424F7FE741E2DF8A60680030D80DC0FB5
:10022E00BF06D112070FC2C40012067DD2C41F74BE
:10023E00182FF8E66024EDC39406501E741E2DF898
:10024E00E6701474182FF8E675F012A424F8FE74F4
:10025E001E2DF8A60680030D80DC0FBF06D11207F7
:10026E000FC2C30012067DD2C31F74182FF8E660AA
:10027E0024EDC39406501E741E2DF8E670147418E7
:10028E002FF8E675F012A424F9FE741E2DF8A606BA
:10029E0080030D80DC0FBF06D112070FC2C2001201
:1002AE00067DD2C21F74182FF8E66024EDC39406A3
:1002BE00501E741E2DF8E6701474182FF8E675F0A3
:1002CE0012A424FAFE741E2DF8A60680030D80DCFF
:1002DE000FBF06D112070FC2C10012067DD2C11F79
:1002EE0074182FF8E66024EDC39406501E741E2D6C
:1002FE00F8E6701474182FF8E675F012A424FBFEBD
:10030E00741E2DF8A60680030D80DC0FBF06D112D9
:10031E00070FC2B70012067DD2B71F74182FF8E66A
:10032E006024EDC39406501E741E2DF8E6701474EE
:10033E00182FF8E675F012A424FCFE741E2DF8A6F4
:10034E000680030D80DC0FBF06D112070FC2B60068
:10035E0012067DD2B61F74182FF8E66024EDC394F2
:10036E0006501E741E2DF8E6701474182FF8E675DC
:10037E00F012A424FDFE741E2DF8A60680030D8037
:10038E00DC0FBF06D112070FC2B50012067DD2B523
:10039E001F74182FF8E66024EDC39406501E741EC9
:1003AE002DF8E6701474182FF8E675F012A424FEDA
:1003BE00FE741E2DF8A60680030D80DC0FBF06D13D
:1003CE0012070FC2B40012067DD2B41F74182FF894
:1003DE00E66023EDC39406501D741E2DF8E67013CF
:1003EE0074182FF8E675F012A414FE741E2DF8A6DC
:1003FE000680030D80DD0FBF06D212070FC2C500A7
:10040E0012067DD2C51F74182FF8E66024EDC39432
:10041E0006501E741E2DF8E6701474182FF8E6752B
:10042E00F012A424EFFE741E2DF8A60680030D8094
:10043E00DC0FBF06D112070FC2A70012067DD2A78E
:10044E001F74182FF8E66024EDC39406501E741E18
:10045E002DF8E6701474182FF8E675F012A424F037
:10046E00FE741E2DF8A60680030D80DC0FBF06D18C
:03047E0012070F53
:010481002258
:10058D00E4FF741E2FF8E6FEB4E004050D804AEE7C
:10059D00B4E106050D050D8040EEB4E2047404804F
:1005AD0026EEB4E3047408801EEEB4E404741080E7
:1005BD0016EEB4E5047420800EEEB4E604744080AB
:1005CD0006EEB4E7087480250DF50D800CEE900550
:1005DD002093FE740F2FF8A606750B02750C08E517
:1005ED000D240C250F25102511251225132514F585
:0705FD00150FEF6406708B7F
:0106040022D3
:10073900E4FF74082FF8E6F5993099FDC2990FBFC7
:020749000EF0B0
:01074B00228B
:1006C500E4FFEF90050E93FE74082FF8A6060FBF02
:0B06D5000EF07F06781EE4F608DFFC44
:0106E00022F7
:03000B00020605E5
:10060500C0E0C0F0C083C082C0D075D000C000C0BB
:1006150005C006C007758A91758C910517E5177099
:10062500020516B41017E516B427127516007517CE
:100635000012000E12058D1207391206C5D007D01B
:1006450006D005D000D0D0D082D083D0F0D0E03213
:10048E0002074CE493A3F8E493A34003F68001F231
:10049E0008DFF48029E493A3F85407240CC8C3336F
:1004AE00C4540F4420C8834004F456800146F6DF3E
:1004BE00E4800B0102040810204080900724E47EA3
:1004CE00019360BCA3FF543F30E509541FFEE49333
:1004DE00A360010ECF54C025E060A840B8E493A3FA
:1004EE00FAE493A3F8E493A3C8C582C8CAC583CA25
:1004FE00F0A3C8C582C8CAC583CADFE9DEE780BEDD
:0107380000C0
:00000001FF
